:020000040800F2
:10000000C8070020890100085F16000811130008C6
:100010005D1600088F0200083D1A0008000000006D
:10002000000000000000000000000000C3160008EF
:100030009102000800000000C1160008C516000863
:10004000A3010008A3010008A3010008A301000800
:10005000A3010008A3010008A3010008A3010008F0
:10006000A3010008A3010008A3010008A3010008E0
:10007000A3010008A3010008A3010008A3010008D0
:10008000A3010008A3010008A3010008A3010008C0
:10009000A3010008A3010008A3010008A3010008B0
:1000A000A3010008A3010008A3010008A3010008A0
:1000B000291700083517000800000000A3010008F8
:1000C000A30100080000000000000000A3010008D8
:1000D00000000000A3010008A301000800000000C8
:1000E000A3010008A3010008A301000800F002F822
:1000F00000F03AF80AA090E8000C82448344AAF188
:100100000107DA4501D100F02FF8AFF2090EBAE885
:100110000F0013F0010F18BFFB1A43F0010318473B
:10012000FC1E00001C1F0000103A24BF78C878C1D4
:10013000FAD8520724BF30C830C144BF04680C60ED
:10014000704700000023002400250026103A28BF35
:1001500078C1FBD8520728BF30C148BF0B60704739
:100160001FB51FBD10B510BD00F05CF81146FFF7BC
:10017000F7FF01F091FC00F07AF803B4FFF7F2FF0B
:1001800003BC00F07DF8000009488047094800479B
:10019000FEE7FEE7FEE7FEE7FEE7FEE7FEE7FEE737
:1001A000FEE7FEE704480549054A064B7047000094
:1001B00025170008ED000008C8010020C80700202E
:1001C000C8030020C80300204FF0000200B513460A
:1001D00094469646203922BFA0E80C50A0E80C5067
:1001E000B1F12001BFF4F7AF090728BFA0E80C5018
:1001F00048BF0CC05DF804EB890028BF40F8042B11
:1002000008BF704748BF20F8022B11F0804F18BF7D
:1002100000F8012B704770477047704700487047DF
:10022000640100207546FFF7F9FFAE4605006946F8
:10023000534620F00700854618B020B5FFF7B2FFFF
:10024000BDE820404FF000064FF000074FF00008D7
:100250004FF0000B21F00701AC46ACE8C009ACE858
:10026000C009ACE8C009ACE8C0098D46704710B5BC
:100270000446AFF300802046BDE81040FFF77DBF85
:1002800001491820ABBEFEE7260002007047FEE7DA
:10029000704772B6FEE7000070B5044600F0F8F84B
:1002A0000546601C02D004480078044400F0F0F8D1
:1002B000401BA042FAD370BD340000202DE9F84F56
:1002C000DFF89C910024A9F1040B23460F2709F1C4
:1002D000040AABF1040EBBE00125A5402A40AA4266
:1002E00076D1DFF880C14E68A6EB0C0866452BD0AE
:1002F0000DDC032E34D005DC36B3012E19D0022ECE
:100300002FD11BE0112E16D0122E2AD119E0B8F5EC
:10031000881F19D006DCB8F5803F15D0B8F5801FCE
:100320001FD111E0B8F5001F0ED0B8F5041F18D189
:100330000AE0CB6815E0CB681B1D12E0CB680833E0
:100340000FE0CB680C330CE08B682BB1012B4FF026
:10035000080303D0456104E0042302E0056100E0E6
:100360000023FF2A01D8064601E000F104064FEA07
:10037000840501D9A5F12005D6F8008007FA05FC0F
:1003800028EA0C0803FA05F548EA0508C6F80080D3
:100390004D68ED005BD5344DAE6946F00106AE61A7
:1003A000AD6924F0030605F0010500952F4D06EB1D
:1003B000050CDCF80850A607360F07FA06F825EA00
:1003C0000805DFF8AC80404503D14FF0000810E08D
:1003D0003DE0DFF8A080404502D14FF0010808E081
:1003E000DFF89480404502D14FF0020801E04FF061
:1003F000030808FA06F848EA0508CCF808804D68B2
:10040000D9F80060ED024D4601D5164300E0964351
:100410002E604D68DAF80060AD02554601D51643EE
:1004200000E096432E604D68DBF80060AD035D464A
:1004300001D5164300E096432E604D68DEF800605B
:10044000ED03754601D5164300E096432E60641C0B
:100450000A6832FA04F57FF43FAFBDE8F88F000078
:10046000080401400000111000100240000001408B
:1004700000080140000C0140001001408068084065
:1004800000D0012070470AB1016170470904FBE701
:1004900001488068704700003400002002488168ED
:1004A000027811448160704734000020074810B57D
:1004B000016841F010010160032000F075F80F2081
:1004C00000F006F800F024F8002010BD00200240E3
:1004D00070B50D4D04464FF47A712878B1FBF0F0F9
:1004E0000A490968B1FBF0F000F0DCFA48B9102CB9
:1004F00007D200222146501E00F036F800206C6022
:1005000070BD012070BD00003400002040000020BC
:100510000C4808B5816941F001018161816901F0F0
:1005200001010091C16941F08051C161C06900F0D1
:10053000805000900448416821F0E06141F0806102
:10054000416008BD0010024000000140002809DBA6
:1005500000F01F02012191404009800000F1E020DD
:10056000C0F8001170470000F0B40E4B1B680C4639
:10057000C3F30223C3F10705042D00D90425191D77
:10058000072901D2002300E0DB1E012606FA05F14F
:10059000491E214099409E40761E16403143F0BCD2
:1005A00001F06ABA0CED00E0064900F007020868A5
:1005B0004FF6FF03184040EA0220034A1043086048
:1005C000704700000CED00E00000FA052DE9F0474F
:1005D0000F46050061D0434E306800F00700B84276
:1005E00009D2306820F0070038433060306800F0EE
:1005F0000700B84251D128683B4C810712D540070B
:1006000003D5606840F4E06060602878000703D597
:10061000606840F4605060606068A96820F0F00095
:10062000084360602878C00728D06868012810D087
:100630002168022810D0890700292EDA616821F08C
:10064000030101436160FFF723FF804641F28839CF
:100650000DE021688903EFE78901EDE7FFF718FF57
:10066000A0EB0801494502D90320BDE8F087606886
:10067000696800F00C00B0EB810FEFD1306800F03A
:100680000700B8420BD9306820F0070038433060CB
:10069000306800F00700B84201D00120E5E7287873
:1006A000400705D56068E96820F4E06008436060B1
:1006B0002878000706D56068296920F4605040EA70
:1006C000C100606000F038F86168084AC1F30311A6
:1006D000515CC8400649086006480068FFF7F8FE0C
:1006E0000020C2E700200240001002400420000861
:1006F000400000203800002004480549006849688F
:10070000044AC1F30221515CC840704740000020F8
:100710000010024014200008044805490068496898
:10072000044AC1F3C221515CC84070474000002018
:1007300000100240142000080E4A51680E4801F0D3
:100740000C03042B11D0082B0FD10C48C1F38343A9
:10075000C903C05C0AD55168084AC1F34041921EE2
:10076000515C054A5043B0FBF1F0704704494843DF
:10077000704700000010024000127A00F41F0008C9
:1007800000093D002DE9F84F040070D02078C04DDD
:10079000C00749D06868C0F38100012807D06868A5
:1007A000C0F38100022809D16868C00306D5286813
:1007B000800339D560680028E7D035E06068B0F57F
:1007C000803F0BD010B1B0F5A02F11D0286820F4D5
:1007D00080302860286820F4802002E0286840F4F7
:1007E00080302860606890B1FFF752FE06460AE04C
:1007F000286840F480202860F0E700BFFFF748FE3B
:10080000801B642873D828688003F7D50CE0FFF7B5
:100810003FFE064605E000BFFFF73AFE801B642856
:10082000F0D828688003F7D420789A4E80074FF0DC
:1008300001094FF0000839D5686810F00C0F07D097
:100840006868C0F38100022809D16868C00306D433
:100850002868800714D52069012808D110E0206994
:10086000B0B1C6F80090FFF713FE074605E00AE1B5
:10087000FFF70EFEC01B0228C4D828688007F7D5F2
:100880002868616920F0F80040EAC10028600DE0A6
:10089000C6F80080FFF7FCFD074604E0FFF7F8FD0F
:1008A000C01B022823D828688007F7D420780007C7
:1008B0002CD57948A169D9B1C0F80090FFF7E8FDBF
:1008C000074604E0FFF7E4FDC01B02280FD8686A62
:1008D0008007F7D571484FF4FA510068B0FBF1F08A
:1008E000009000BF0098411E0091FAD20EE080E017
:1008F000C0F80080FFF7CCFD074604E0FFF7C8FD15
:10090000C01B022875D8686A8007F7D42078400792
:1009100060D5E8690027C00008D4E86940F080503D
:10092000E861E869012700F0805000905C480168A8
:10093000C90513D40168834641F480710160FFF753
:10094000A7FD824606E000BFFFF7A2FDA0EB0A006C
:1009500064284ED8DBF80000C005F5D5E068012812
:100960000AD008B1052813D0286A20F001002862B7
:10097000286A20F0040002E0286A40F001002862A2
:10098000E06841F2883B98B1FFF782FD82460BE0B8
:10099000286A40F004002862EEE700BFFFF778FD08
:1009A000A0EB0A0159455AD8286A8007F6D50CE011
:1009B000FFF76EFD824605E0FFF76AFDA0EB0A0136
:1009C00059454CD8286A8007F6D41FB1E86920F051
:1009D0008050E861E06988B36968C1F38101022948
:1009E00044D00228C6F8608004D0FFF751FD0446C9
:1009F00038E034E0FFF74CFD074604E0FFF748FD20
:100A0000C01B02282BD828688001F7D4206AB0F5D3
:100A1000803F05D16868A16820F400300843686011
:100A2000D4E908010843696821F474110843686037
:100A3000C6F86090FFF72CFD044606E025E000BFF5
:100A4000FFF726FD001B022809D828688001F7D58A
:100A50001BE000BFFFF71CFD001B022802D903208A
:100A6000BDE8F88F28688001F4D40EE00128F7D0A3
:100A70006868226A00F48031914204D1616A00F40E
:100A80007010884201D00120EAE70020E8E700006A
:100A90000010024000004242800442424000002018
:100AA0000070004010B5401EB0F1807F01D30120DE
:100AB00010BD4FF0E02460610F21601700F0DCFFF3
:100AC0000020A06107202061002010BD7047704702
:100AD00070B590F83C20012A23D0012480F83C40D6
:100AE000022280F83D2003685A689D6822F0700653
:100AF0000A6832435A600C4B02689A4205D0B2F140
:100B0000804F02D0094B9A4204D1496825F08003F6
:100B10001943916080F83D40002180F83C10084660
:100B200070BD022070BD0000002C01400004004098
:100B300070B50068204988423DD1204C00252946E7
:100B4000207800281E482DD000F062FBE168C1EB40
:100B500001410844A06001F0F7F8216900F0B0FFFE
:100B600020610021164800F093F9E08801F0ECF8CC
:100B70001449096A00F0A4FF01F0C6F8E080A068FB
:100B800001F0E2F8104901F0F3F801460F4800F0D7
:100B9000F9FF60622570E560BDE8704000210848FB
:100BA00000F008B900F074F9012020700448E560F5
:100BB00000684562F0E770BD0004004008000020B6
:100BC000D40000206800002000004040000048429F
:100BD0002DE9F041054690F83C0000260C4601281E
:100BE00010D0012085F83C0072B1042A1CD0082ADC
:100BF0002CD00C2A50D00126002085F83C0030462D
:100C0000BDE8F0810220FBE7D4E90012E368286820
:100C100000F074FE2868816921F00C018161286868
:100C20008169A26811430FE0D4E90012E3682868E3
:100C300000F08CFE2868816921F440618161286898
:100C40008169A26841EA02218161D5E72868D4E977
:100C5000002C277B036A016A21F480710162C1695B
:100C600023F4007321F0030141EA0C0121F0F00CA0
:100C700039074FF400774CEA116107EA02221A4360
:100C8000C16102622868C16921F00C01C161286854
:100C9000C169A26811432BE02868D4E90021E76804
:100CA000036AD0F820C02CF4805CC0F820C0D0F8D3
:100CB0001CC023F400532CF4407C4CEA012121F4A5
:100CC000704C4FF6FF7101EA07314FF4005741EACB
:100CD0000C0107EA02321A43C16102622868C16945
:100CE00021F44061C1612868C169A26841EA02211A
:100CF000C16181E710B5040003D094F83D0010B144
:100D000007E0012010BD002084F83C00204600F0E0
:100D10001FF8022084F83D00211D206800F010FD1E
:100D2000012084F8460084F83E0084F83F0084F8EF
:100D3000400084F8410084F8420084F8430084F8BD
:100D4000440084F8450084F83D00002010BD0000F8
:100D500000B585B0002100910191029103910068D6
:100D6000114988421ED11148C16941F00201C16197
:100D7000C16901F002010491816941F004018161BE
:100D80008069694600F00400049040200090084803
:100D9000FFF794FA002211461D20FFF7E5FB1D2006
:100DA000FFF7D4FB05B000BD000400400010024076
:100DB0000008014030B50446002551B104290DD08A
:100DC000082910D094F8410094F84520012811D149
:100DD0000EE094F83E0094F84220F7E794F83F00C4
:100DE00094F84320F2E794F8400094F84420EDE7AB
:100DF000012A01D0012030BD022059B1042912D0AE
:100E0000082919D084F8410084F845000C2935D010
:100E1000012531E084F83E0084F842002068C26871
:100E200042F0020210E084F83F0084F8430020689A
:100E3000C26842F0040207E084F8400084F84400ED
:100E40002068C26842F00802C2600122206800F0F7
:100E5000A5FC0D492068884205D0B0F1804F02D032
:100E60000A49884204D1816801F00701062903D0AC
:100E7000016841F001010160284630BD2068C26868
:100E800042F01002E0E70000002C014000040040A6
:100E900030B504460D460068002200F07FFC206853
:100EA000016A41F21112114207D1016A92101142F6
:100EB00003D1016821F001010160012245B1042D37
:100EC00009D0082D0AD004F8412F2271002030BD2E
:100ED00004F83E2FF9E704F83F2FF6E704F8402F17
:100EE000F3E770B50446006801694FF00005C94397
:100EF000890715D4C168C943890711D4E91E016166
:100F000001202077206880698007204602D0FFF703
:100F10000FFE04E000F0BCF8204600F069F92577E8
:100F200020680169C943490717D4C168C943490703
:100F300013D46FF0040101610220207720688069DA
:100F400010F4407F204602D0FFF7F2FD04E000F0ED
:100F50009FF8204600F04CF9257720680169C943C5
:100F6000090716D4C168C943090712D46FF00801F4
:100F70000161042020772068C0698007204602D0E4
:100F8000FFF7D6FD04E000F083F8204600F030F9CA
:100F9000257720680169C943C90617D4C168C943C8
:100FA000C90613D46FF01001016108202077206872
:100FB000C06910F4407F204602D0FFF7B9FD04E07D
:100FC00000F066F8204600F013F9257720680169E3
:100FD000C943C90708D1C168C943C90704D1891EDB
:100FE0000161204600F006F920680169C94309063D
:100FF00009D4C168C943090605D46FF080010161B5
:101000002046FFF763FD20680169C943490609D4FA
:10101000C168C943490605D46FF04001016120460B
:1010200000F00BF920680169C94389060BD4C16837
:10103000C943890607D46FF0200101612046BDE84D
:101040007040FFF744BD70BD00B585B00021009130
:101050000191029103910068B0F1804F11D10A48CB
:10106000816941F0040181618069694600F00400F2
:101070000490082000900220019003900348FFF79D
:101080001DF905B000BD000000100240000801403D
:10109000704770B5044690F83C0000260D460128C4
:1010A0000FD0012084F83C006AB1042A1DD0082A20
:1010B0002FD00C2A3FD00126002084F83C00304677
:1010C00070BD022070BD206800F076FB2068816949
:1010D00041F0080181612068816921F0040181618A
:1010E000206881692A69114311E0206800F08CFBB7
:1010F0002068816941F4006181612068816921F47F
:1011000080618161206881692A6941EA02218161E7
:10111000D2E7206800F0A4FB2068C16941F0080113
:10112000C1612068C16921F00401C1612068C16901
:101130002A69114311E0206800F0BEFB2068C169F4
:1011400041F40061C1612068C16921F48061C1611D
:101150002068C1692A6941EA0221C161ACE710B582
:10116000040003D094F83D0010B107E0012010BD49
:10117000002084F83C00204600F01EF8022084F88D
:101180003D00211D206800F0DBFA012084F84600B4
:1011900084F83E0084F83F0084F8400084F8410061
:1011A00084F8420084F8430084F8440084F8450041
:1011B00084F83D00002010BD08B50068B0F1804FF4
:1011C00012D10A48C16941F00101C161C069002220
:1011D00000F00100009011461C20FFF7C5F9BDE8A2
:1011E00008401C20FFF7B2B908BD00000010024003
:1011F0007047000000680449884203D10348C16871
:10120000491CC16070470000000400400800002035
:101210000246002041B1042909D008290AD00C292E
:1012200001D11068006C70471068406B70471068FF
:10123000806B70471068C06B7047704770B50400D2
:1012400004D094F84100002510B106E0012070BDE3
:1012500084F84050204600F023F8242084F8410010
:101260002068C16821F40051C160204600F08AFB6B
:101270002068016921F4904101612068416921F0F1
:101280002A0141612068C16841F40051C160656470
:10129000202084F8410084F842006563002070BD7E
:1012A00030B585B000240094019402940394006842
:1012B0001449884224D11448816941F480418161F4
:1012C000816901F480410491816941F004018161E7
:1012D00080690E4D00F0040004904FF400700090FF
:1012E000022001900320039069462846FEF7E6FF9E
:1012F0002815CDE90004694628460294FEF7DEFF72
:1013000005B030BD00380140001002400008014027
:10131000FEE700000F4810B501680F4CA269891A5A
:10132000322915D30068A06100F08AFB6070217932
:1013300020EA010241408143A270E1702071022A3B
:1013400006D10022BDE8104001210448FFF79BB8F8
:1013500010BD00003C0000200800002000100140EB
:1013600010B5012000F006F8BDE810400520FEF79A
:1013700093BF000070B50B4D04460022082128469B
:10138000FFF781F8002210212846FFF77CF8054876
:101390000C30016864F31F210160BDE8704000F06B
:1013A0003DB80000000C01402DE9F0414FF0E02471
:1013B000064660694FF47A71401CB0FBF1F5A069F4
:1013C000B0FBF5F0C0F57A77FFF762F800EB40016B
:1013D000C1EBC01007EBC0074FEA0408D8F81800AB
:1013E000B0FBF5F0C0F57A74FFF752F800EB40015E
:1013F000C1EBC01004EBC000C01BB042EED3BDE88F
:10140000F08100000449087840F00400087040F0C2
:101410000800FFF7AFBF00000000002010B5094C26
:10142000012220212046FFF72EF83220FFF7BCFFD3
:10143000002220212046FFF726F8BDE81040322088
:10144000FFF7B2BF000C014010B50C4C0020E0705B
:101450002071182060703820FFF78CFF0420207066
:10146000FFF7D0FF0220A0700620FFF783FFFFF7F1
:1014700077FFBDE810400520FEF70EBF00000020FA
:10148000F0B585B000252948009501950295039592
:10149000816941F020018161816901F0200104919D
:1014A000816941F004018161816901F004010491C5
:1014B000816941F00801816180691D4F00F00800D9
:1014C0000490002202213846FEF7DDFF00220421AD
:1014D0003846FEF7D8FF00224FF638711548FEF760
:1014E000D2FF01240620CDE900040326CDE90246FF
:1014F00069463846FEF7E2FE4FF47040CDE900053C
:10150000694638460295FEF7D9FE7F20CDE90004F2
:10151000CDE90246084C69462046FEF7CFFE01227F
:101520007F212046FEF7AFFF05B0F0BD001002405E
:1015300000080140000C01400010014010B58AB0C5
:10154000002407941C2168460894FEF73DFE1848C5
:101550004FF08041016040F6E341C0E9011440F2E0
:10156000E731C0E903148461FFF7F9FD08B1FEF724
:1015700090FE079407A90E480894FFF7A9FA08B14E
:10158000FEF787FE6020009040F2F31001900220E9
:1015900002900C22694604940548FFF77AFD08B1D1
:1015A000FEF777FE0248FFF74FFD0AB010BD0000BE
:1015B0008C00002010B586B00024194805940494CE
:1015C00000940194029415490394016048F2E701E4
:1015D000C0E901144FF6FF71C0E903148461FFF7FD
:1015E00089FB08B1FEF755FE049404A90C48059444
:1015F000FFF76EFA08B1FEF74CFE0120CDE900407E
:1016000002940022694606480394FFF7E1FA002895
:1016100001D0FEF73EFE06B010BD00000004004001
:10162000D40000200C4810B50A4901604FF416514F
:101630004160002181600C22C160C0E90412816117
:10164000C161FFF7FBFD002803D0BDE81040FEF7A5
:1016500020BE10BD003801401C010020FEE7FEE75F
:101660000F490E480F4A08600020C8614860C1E970
:1016700002020D4A0A610D4AC1E9052024310C4AD3
:10168000C861C1E900200B4AC1E902020A4A0A61A5
:101690000A4AC1E90520086270470000000096432D
:1016A0004400002075D27B40EED4FC420C54E13C57
:1016B0001D55D53F8FE20E448025E546A1D6AC3FAF
:1016C00070477047FEF7EABE30B58FB028216846F4
:1016D000FEF77AFD14210AA8FEF776FD0225012007
:1016E000049000951020059000244FF4C010CDE91F
:1016F000084007956846FFF745F808B172B6FEE75F
:101700000F20CDE90A054FF48060CDE90C4001219E
:101710000AA80E94FEF75AFF002801D072B6FEE721
:101720000FB030BD704700000148FFF7DABB000082
:101730008C0000200148FFF7D4BB0000D40000203B
:1017400070B50268134B144C4FF08046984203D09A
:10175000B04201D0A04203D122F070054A682A436A
:10176000984203D0B04201D0A04203D122F4407489
:10177000CA6822434C6922F08002224302608A68D0
:10178000C2620A688262984201D10969016301213B
:10179000416170BD002C01400004004010B501F013
:1017A0001F030121046A99408C430462016A9A4034
:1017B0001143016210BD000030B5036A026A22F0D5
:1017C000010202624268846924F073050C682C43AC
:1017D00023F002058B682B430A4DA8420BD123F05E
:1017E0000805CB6822F440722B434D6923F00403B3
:1017F00015438A692A4342608461496841630362F0
:1018000030BD0000002C014030B5026A036A23F0AD
:1018100010030362436884690D6824F4E64444EAD3
:1018200005248D6822F0200242EA05120B4DA842E1
:101830000ED1CD6822F0800242EA05124D6923F4F0
:10184000406343EA85038D6922F0400243EA850341
:101850004360846149688163026230BD002C0140AD
:1018600030B5036A026A22F4807202624268C46977
:1018700023F4007324F073050C682C438D6843EA4D
:1018800005230C4DA8420ED1CD6823F4006343EA32
:1018900005234D6922F4405242EA05128D6923F472
:1018A000806342EA05124260C4614968C163036211
:1018B00030BD0000002C014030B5046A026A22F4F9
:1018C000805202624268C3690D6823F4E64343EA2A
:1018D00005238D6824F4005444EA0534064DA842DB
:1018E00004D14D6922F4804242EA85124260C3610C
:1018F00049680164046230BD002C014070B5056A7E
:10190000046A24F00104046284690E4EB04205D0DA
:10191000B0F1804F02D00C4EB04203D124F003044A
:10192000144301E044F001041A0724F0F00444EAEF
:10193000126225F00A0301F00A0119438261016273
:1019400070BD0000002C01400004004030B5046A66
:10195000056A25F010050562856925F4407545EA9C
:10196000022222F470454FF6FF7202EA033224F09D
:10197000A0032A43A02404EA0111194382610162F1
:1019800030BD000070B5044600680169E26821F4CA
:101990004051114301612169A0680843616908430E
:1019A0002168CA6841F20C639A430243CA60206806
:1019B0004169A26921F44071114341611E492068C7
:1019C000884202D1FEF7A8FE01E0FEF795FE00EB8B
:1019D000C00101EB0012606864218000B2FBF0F3EB
:1019E000B3FBF1F36FF018067343B2FBF0F5B2FBF3
:1019F000F0F605EB8305322303EB0515B5FBF1F596
:101A0000B6FBF1F605F0F00505EB0615B2FBF0F6B6
:101A1000B2FBF0F0B0FBF1F06FF01802504306EBB0
:101A2000800003EB0010B0FBF1F0216800F00F0024
:101A30002844886070BD000000380140FEE70000C7
:101A400070B5002401210A48FEF718FD00B90124F1
:101A5000084D02212846FEF711FD00B90224042199
:101A60002846FEF70BFD00B90324204670BD000098
:101A7000000C0140000801400907090E002804DBA2
:101A800000F1E02080F80014704700F00F0000F132
:101A9000E02080F8141D7047FEF708FDFFF714FEE4
:101AA000FFF7EEFCFFF74AFDFFF7BCFDFFF782FDF5
:101AB000FFF7D6FDFFF7C8FCFFF72CFCFCE70000A2
:101AC00090EA010F48BF81F0004100F12482421AE0
:101AD0003CBF801A89184FEAD0524FF07F4C1CEA65
:101AE000410FA2EBD15318BF9CEA026F00F03B807C
:101AF0004FF0004C4CEA00204CEA012121FA03FC93
:101B000010EB0C0C1ED202F1FF325FEA1C2040EBFE
:101B1000C25038BF70471CF07F0F4FEA400C18BF0F
:101B2000BCF17F4F38BF7047C3F12003994008BF15
:101B300020F00100BCF17F4F38BF7047A0F1C040DA
:101B400000F0DDB94FEA3C00000A40EBC25028BF6C
:101B50001CF0FF0F4FEA400CE6D018BFBCF17F4FDE
:101B600038BF7047EAE79CEA026F05D010EA5C0FC5
:101B700008BF00F00040704710B500F07AF900BFD0
:101B800064FBBE3E4FF47F0C1CEAD0121EBF1CEA61
:101B9000D11392EA0C0F93EA0C0F00F0858090EAC3
:101BA000010F48BF42F4807240F4000C41F4000081
:101BB0002CF07F4120F07F4000B58142A2EB030270
:101BC0000FF2081CACEB504EC0F100009EF800E094
:101BD0004FEA4E0E00FB0EFC38BF49004FEA2C1CAA
:101BE00002F5FA020CFB0EF34FEACE1E4FEA112C5F
:101BF0004FEAC1210EEB635E42EB22420EFB0CFC6E
:101C00004FEA1C5300FB03114FEA112C4FEA01313C
:101C10000EFB0CFC4FEADC4C00FB0C11C14228BF50
:101C200009184CEB03335DF804EB10EB410143EB77
:101C3000C250B2F57C0F38BF704729D512F0F00FB3
:101C40001CBF00F1C04000F000407047008182835B
:101C50008485868788898B8C8D8E8F9192939596BB
:101C600097999A9C9D9FA0A2A3A5A7A8AAACAEB045
:101C7000B2B3B5B7B9BCBEC0C2C5C7C9CCCED1D44A
:101C8000D7D9DCDFE2E6E9ECF0F3F7FAFE0000007A
:101C90004FEA400C0CF1807CBCF17E4F28BF7047AE
:101CA000B0F1C04000F02BB990EA010F0CEAD1135B
:101CB00048BF42F48072624538BF634507D213F4CF
:101CC0007F0F16D080EA010000F00040704710B589
:101CD00000F0CFF8097EFC3E00F005B880EA010074
:101CE00000F00040704780EA010000F0004000F082
:101CF00006B912F47F0F04BF0248704780EA010062
:101D000000F0FDB80000C07FC10DD1F19E0206DBDE
:101D10004FEA002343F0004323FA02F070470042E9
:101D200007D54FEA4001B1F1FE4F02D24FF000005B
:101D3000704710B500F09DF849922480002070474C
:101D40006FEA200070470000B0FA80F310FA03F247
:101D5000C3F19D030AD0D90501EB1220530638BF09
:101D6000704700F1010008BF20F00100704700003B
:101D70004FF47F0C1CEAD0121EBF1CEAD11392EA6A
:101D80000C0F93EA0C0F00F0478090EA010F48BF58
:101D900042F480724FF0004C4CEA00204CEA0121E2
:101DA00002EB0302A0FB0113A2F50002002918BFF9
:101DB00043F001035B0028BF4FEA330342EB2242AA
:101DC0005FEA132C4CEBC2502EBFBCEB436FB2F555
:101DD0007C0F70474FEA036CBCF1004F08BF20F046
:101DE0000100B2F57C0F38BF70470BD582F0FF02BF
:101DF00012F5803FC8BF704700F1C040D8BF00F067
:101E00000040704700F5000C5FEA4C0C48BF70477B
:101E1000B0F1C04000F073B890EA010F0CEAD113A2
:101E200048BF42F48072624538BF634504D280EAFD
:101E3000010000F00040704710B500F01AF800BF34
:101E40008900013E00F007B800F009B85FEA410CD4
:101E50005FEA1C6C08D080EA010000F050B85FEA2D
:101E6000400C5FEA1C6CF6D14FF00040A0F58000FA
:101E700070470EF1020E2EF0030E5EF8044B244262
:101E800004D44FEA4102B2F17F4F11D84FEA400328
:101E9000B3F17F4F0CD80ED14FEAD07CB2F17F4F17
:101EA0000CEB4C0C0CF1020C08BF4CEBD17C04E0A9
:101EB0004FF0080C01E04FEAD17C0CEB4C0324FA04
:101EC00003F404F00704B4F1040C06D20EEB840C06
:101ED000BDE810404CF0010C6047DFE80CF007084B
:101EE00002024FF00040A0F5800010BD08464200FD
:101EF00018BFD2F1807288BF00F0004010BDFF21F2
:101F000041EAD050C005704790EA010F48BF81F008
:101F100000413FF5DCAD421A04D882F00042A0EB4C
:101F2000020011444FEAD0524FF07F4C1CEA410F9F
:101F3000A2EBD15318BF9CEA026F4AD04FF0004C7D
:101F40004CEA00204CEA012121FA03FCB0EB0C0C16
:101F50000FD412F0FE0F36D05FEA4C001DD50012F0
:101F600040EBC25038BF70471CF03F0F18BF70479E
:101F70000BE0A2F101025FEA1C2040EBC25038BF27
:101F800070471CF07F0F18BF7047C3F120039940C2
:101F900014BF401E20F00100704780084FEA122352
:101FA00008BF7047B0FA80FCA2EB0C02CCF1280C01
:101FB00060FA0CF093EA122F04BF00EBC250704796
:101FC0004FEAC3707047130A5FEADC1008BF70471E
:101FD000F6E79CEA026F04D010EA5C0F08BF00200D
:101FE000704710B5FFF745FF40DFF63E81F0004037
:101FF0007047010202030405060708090A0B0C0DCD
:102000000E0F101000000000000000000102030489
:102010000607080900000000010203043C20000834
:102020000000002044000000280100088020000873
:102030004400002084070000440100080000000064
:102040000000000000000000000000000000000090
:102050000000000000000000000000000000000080
:102060000000000000000000000000000000000070
:102070000100000010000000000000000024F40037
:04000005080000ED02
:00000001FF
